{
  "contractName": "MovieSys",
  "abi": [
    {
      "inputs": [],
      "payable": false,
      "stateMutability": "nonpayable",
      "type": "constructor"
    },
    {
      "anonymous": false,
      "inputs": [
        {
          "indexed": false,
          "internalType": "address",
          "name": "ticketOwner",
          "type": "address"
        },
        {
          "indexed": false,
          "internalType": "bool",
          "name": "isValidTicket",
          "type": "bool"
        },
        {
          "indexed": false,
          "internalType": "string",
          "name": "movieName",
          "type": "string"
        },
        {
          "indexed": false,
          "internalType": "uint256",
          "name": "customerAge",
          "type": "uint256"
        },
        {
          "indexed": false,
          "internalType": "bool",
          "name": "hasCheckedIn",
          "type": "bool"
        },
        {
          "indexed": false,
          "internalType": "uint256",
          "name": "price",
          "type": "uint256"
        }
      ],
      "name": "TicketBooked",
      "type": "event"
    },
    {
      "anonymous": false,
      "inputs": [
        {
          "indexed": false,
          "internalType": "address",
          "name": "ticketOwner",
          "type": "address"
        },
        {
          "indexed": false,
          "internalType": "bool",
          "name": "isValidTicket",
          "type": "bool"
        },
        {
          "indexed": false,
          "internalType": "string",
          "name": "movieName",
          "type": "string"
        },
        {
          "indexed": false,
          "internalType": "uint256",
          "name": "customerAge",
          "type": "uint256"
        },
        {
          "indexed": false,
          "internalType": "bool",
          "name": "hasCheckedIn",
          "type": "bool"
        },
        {
          "indexed": false,
          "internalType": "uint256",
          "name": "refund",
          "type": "uint256"
        }
      ],
      "name": "TicketCancelled",
      "type": "event"
    },
    {
      "anonymous": false,
      "inputs": [
        {
          "indexed": false,
          "internalType": "address",
          "name": "ticketOwner",
          "type": "address"
        },
        {
          "indexed": false,
          "internalType": "bool",
          "name": "isValidTicket",
          "type": "bool"
        },
        {
          "indexed": false,
          "internalType": "string",
          "name": "movieName",
          "type": "string"
        },
        {
          "indexed": false,
          "internalType": "uint256",
          "name": "customerAge",
          "type": "uint256"
        },
        {
          "indexed": false,
          "internalType": "bool",
          "name": "hasCheckedIn",
          "type": "bool"
        }
      ],
      "name": "TicketCheckedIn",
      "type": "event"
    },
    {
      "constant": true,
      "inputs": [],
      "name": "price",
      "outputs": [
        {
          "internalType": "uint256",
          "name": "",
          "type": "uint256"
        }
      ],
      "payable": false,
      "stateMutability": "view",
      "type": "function"
    },
    {
      "constant": true,
      "inputs": [],
      "name": "sysName",
      "outputs": [
        {
          "internalType": "string",
          "name": "",
          "type": "string"
        }
      ],
      "payable": false,
      "stateMutability": "view",
      "type": "function"
    },
    {
      "constant": true,
      "inputs": [
        {
          "internalType": "address",
          "name": "",
          "type": "address"
        }
      ],
      "name": "tickets",
      "outputs": [
        {
          "internalType": "bool",
          "name": "isValidTicket",
          "type": "bool"
        },
        {
          "internalType": "string",
          "name": "movieName",
          "type": "string"
        },
        {
          "internalType": "uint256",
          "name": "customerAge",
          "type": "uint256"
        },
        {
          "internalType": "bool",
          "name": "hasCheckedIn",
          "type": "bool"
        }
      ],
      "payable": false,
      "stateMutability": "view",
      "type": "function"
    },
    {
      "constant": false,
      "inputs": [
        {
          "internalType": "string",
          "name": "_movieName",
          "type": "string"
        },
        {
          "internalType": "uint256",
          "name": "_age",
          "type": "uint256"
        }
      ],
      "name": "buyTicket",
      "outputs": [],
      "payable": true,
      "stateMutability": "payable",
      "type": "function"
    },
    {
      "constant": false,
      "inputs": [],
      "name": "checkInTicket",
      "outputs": [],
      "payable": false,
      "stateMutability": "nonpayable",
      "type": "function"
    },
    {
      "constant": false,
      "inputs": [],
      "name": "cancalTicket",
      "outputs": [],
      "payable": true,
      "stateMutability": "payable",
      "type": "function"
    }
  ],
  "bytecode": "0x60806040523480156200001157600080fd5b506040518060400160405280601b81526020017f4f6e6c696e65204d6f766965205469636b657420536572766963650000000000815250600090805190602001906200005f92919062000066565b5062000115565b828054600181600116156101000203166002900490600052602060002090601f016020900481019282601f10620000a957805160ff1916838001178555620000da565b82800160010185558215620000da579182015b82811115620000d9578251825591602001919060010190620000bc565b5b509050620000e99190620000ed565b5090565b6200011291905b808211156200010e576000816000905550600101620000f4565b5090565b90565b61124580620001256000396000f3fe6080604052600436106100555760003560e01c80633fdcf0cf1461005a5780636dcbf2a31461007157806383a5c20d14610158578063a035b1fe14610162578063a28f161c1461018d578063ade209e714610252575b600080fd5b34801561006657600080fd5b5061006f6102e2565b005b34801561007d57600080fd5b506100c06004803603602081101561009457600080fd5b81019080803573ffffffffffffffffffffffffffffffffffffffff1690602001909291905050506106a5565b60405180851515151581526020018060200184815260200183151515158152602001828103825285818151815260200191508051906020019080838360005b8381101561011a5780820151818401526020810190506100ff565b50505050905090810190601f1680156101475780820380516001836020036101000a031916815260200191505b509550505050505060405180910390f35b610160610787565b005b34801561016e57600080fd5b50610177610bac565b6040518082815260200191505060405180910390f35b610250600480360360408110156101a357600080fd5b81019080803590602001906401000000008111156101c057600080fd5b8201836020820111156101d257600080fd5b803590602001918460018302840111640100000000831117156101f457600080fd5b91908080601f016020809104026020016040519081016040528093929190818152602001838380828437600081840152601f19601f82011690508083019250505050505050919291929080359060200190929190505050610bb8565b005b34801561025e57600080fd5b50610267611032565b6040518080602001828103825283818151815260200191508051906020019080838360005b838110156102a757808201518184015260208101905061028c565b50505050905090810190601f1680156102d45780820380516001836020036101000a031916815260200191505b509250505060405180910390f35b6102ea6110d0565b600160003373ffffffffffffffffffffffffffffffffffffffff1673ffffffffffffffffffffffffffffffffffffffff1681526020019081526020016000206040518060800160405290816000820160009054906101000a900460ff16151515158152602001600182018054600181600116156101000203166002900480601f0160208091040260200160405190810160405280929190818152602001828054600181600116156101000203166002900480156103e85780601f106103bd576101008083540402835291602001916103e8565b820191906000526020600020905b8154815290600101906020018083116103cb57829003601f168201915b50505050508152602001600282015481526020016003820160009054906101000a900460ff16151515158152505090508060000151610472576040517f08c379a00000000000000000000000000000000000000000000000000000000081526004018080602001828103825260228152602001806111a26022913960400191505060405180910390fd5b8060600151156104ea576040517f08c379a00000000000000000000000000000000000000000000000000000000081526004018080602001828103825260178152602001807f596f7520616c726561647920636865636b656420696e2e00000000000000000081525060200191505060405180910390fd5b600181606001901515908115158152505080600160003373ffffffffffffffffffffffffffffffffffffffff1673ffffffffffffffffffffffffffffffffffffffff16815260200190815260200160002060008201518160000160006101000a81548160ff02191690831515021790555060208201518160010190805190602001906105779291906110fc565b506040820151816002015560608201518160030160006101000a81548160ff0219169083151502179055509050507fe8b254e14a2939aa5b7024f7f07ccd82cf4c99fedc2243d2c3fecb0ff0ce98ae338260000151836020015184604001516001604051808673ffffffffffffffffffffffffffffffffffffffff1673ffffffffffffffffffffffffffffffffffffffff168152602001851515151581526020018060200184815260200183151515158152602001828103825285818151815260200191508051906020019080838360005b83811015610664578082015181840152602081019050610649565b50505050905090810190601f1680156106915780820380516001836020036101000a031916815260200191505b50965050505050505060405180910390a150565b60016020528060005260406000206000915090508060000160009054906101000a900460ff1690806001018054600181600116156101000203166002900480601f0160208091040260200160405190810160405280929190818152602001828054600181600116156101000203166002900480156107645780601f1061073957610100808354040283529160200191610764565b820191906000526020600020905b81548152906001019060200180831161074757829003601f168201915b5050505050908060020154908060030160009054906101000a900460ff16905084565b61078f6110d0565b600160003373ffffffffffffffffffffffffffffffffffffffff1673ffffffffffffffffffffffffffffffffffffffff1681526020019081526020016000206040518060800160405290816000820160009054906101000a900460ff16151515158152602001600182018054600181600116156101000203166002900480601f01602080910402602001604051908101604052809291908181526020018280546001816001161561010002031660029004801561088d5780601f106108625761010080835404028352916020019161088d565b820191906000526020600020905b81548152906001019060200180831161087057829003601f168201915b50505050508152602001600282015481526020016003820160009054906101000a900460ff16151515158152505090508060000151610917576040517f08c379a00000000000000000000000000000000000000000000000000000000081526004018080602001828103825260228152602001806111a26022913960400191505060405180910390fd5b80606001511561098f576040517f08c379a00000000000000000000000000000000000000000000000000000000081526004018080602001828103825260178152602001807f596f7520616c726561647920636865636b656420696e2e00000000000000000081525060200191505060405180910390fd5b600081600001901515908115158152505080600160003373ffffffffffffffffffffffffffffffffffffffff1673ffffffffffffffffffffffffffffffffffffffff16815260200190815260200160002060008201518160000160006101000a81548160ff0219169083151502179055506020820151816001019080519060200190610a1c9291906110fc565b506040820151816002015560608201518160030160006101000a81548160ff0219169083151502179055509050503373ffffffffffffffffffffffffffffffffffffffff166108fc670de0b6b3a76400009081150290604051600060405180830381858888f19350505050158015610a98573d6000803e3d6000fd5b507f4a5a846bc7f22c0dc71de271d5975a0fbe77ef6fc49c4c85d9e0e2dfe4e33dfa338260000151836020015184604001518560600151670de0b6b3a7640000604051808773ffffffffffffffffffffffffffffffffffffffff1673ffffffffffffffffffffffffffffffffffffffff168152602001861515151581526020018060200185815260200184151515158152602001838152602001828103825286818151815260200191508051906020019080838360005b83811015610b6a578082015181840152602081019050610b4f565b50505050905090810190601f168015610b975780820380516001836020036101000a031916815260200191505b5097505050505050505060405180910390a150565b670de0b6b3a764000081565b6000825111610c2f576040517f08c379a00000000000000000000000000000000000000000000000000000000081526004018080602001828103825260198152602001807f4d6f7669652773206e616d65206973207265717569726564210000000000000081525060200191505060405180910390fd5b6012811015610c89576040517f08c379a000000000000000000000000000000000000000000000000000000000815260040180806020018281038252602a8152602001806111c4602a913960400191505060405180910390fd5b600160003373ffffffffffffffffffffffffffffffffffffffff1673ffffffffffffffffffffffffffffffffffffffff16815260200190815260200160002060000160009054906101000a900460ff161580610d895750600160003373ffffffffffffffffffffffffffffffffffffffff1673ffffffffffffffffffffffffffffffffffffffff16815260200190815260200160002060000160009054906101000a900460ff168015610d885750600160003373ffffffffffffffffffffffffffffffffffffffff1673ffffffffffffffffffffffffffffffffffffffff16815260200190815260200160002060030160009054906101000a900460ff165b5b610dde576040517f08c379a00000000000000000000000000000000000000000000000000000000081526004018080602001828103825260238152602001806111ee6023913960400191505060405180910390fd5b670de0b6b3a7640000341015610e5c576040517f08c379a00000000000000000000000000000000000000000000000000000000081526004018080602001828103825260198152602001807f5061796d656e742073686f756c6420626520656e6f756768210000000000000081525060200191505060405180910390fd5b604051806080016040528060011515815260200183815260200182815260200160001515815250600160003373ffffffffffffffffffffffffffffffffffffffff1673ffffffffffffffffffffffffffffffffffffffff16815260200190815260200160002060008201518160000160006101000a81548160ff0219169083151502179055506020820151816001019080519060200190610efe9291906110fc565b506040820151816002015560608201518160030160006101000a81548160ff0219169083151502179055509050507f8dc0d028463b464486d2097bd9b9e2d5e3e0e50a52cb086878961c6ad1cf050133600184846000670de0b6b3a7640000604051808773ffffffffffffffffffffffffffffffffffffffff1673ffffffffffffffffffffffffffffffffffffffff168152602001861515151581526020018060200185815260200184151515158152602001838152602001828103825286818151815260200191508051906020019080838360005b83811015610fef578082015181840152602081019050610fd4565b50505050905090810190601f16801561101c5780820380516001836020036101000a031916815260200191505b5097505050505050505060405180910390a15050565b60008054600181600116156101000203166002900480601f0160208091040260200160405190810160405280929190818152602001828054600181600116156101000203166002900480156110c85780601f1061109d576101008083540402835291602001916110c8565b820191906000526020600020905b8154815290600101906020018083116110ab57829003601f168201915b505050505081565b604051806080016040528060001515815260200160608152602001600081526020016000151581525090565b828054600181600116156101000203166002900490600052602060002090601f016020900481019282601f1061113d57805160ff191683800117855561116b565b8280016001018555821561116b579182015b8281111561116a57825182559160200191906001019061114f565b5b509050611178919061117c565b5090565b61119e91905b8082111561119a576000816000905550600101611182565b5090565b9056fe596f75206861766e277420626f756768742061207469636b6574206265666f72652e496e76616c6964206167652c2069742073686f756c642062652067726561746572207468616e2031382e596f7520616c726561647920626f756768742061207469636b6574206265666f72652ea265627a7a72315820e6bfaffec7f71d56a7aaad00897204ef7b21c0b94887881b2acb0aa500c3fd4964736f6c63430005100032",
  "source": "pragma solidity ^0.5.0;\n\ncontract MovieSys {\n    string public sysName;\n\n    uint256 public constant price = 1 ether;\n\n    struct MovieTicket {\n        bool isValidTicket;\n        string movieName;\n        uint256 customerAge;\n        bool hasCheckedIn;\n    }\n\n    mapping(address => MovieTicket) public tickets;\n\n    event TicketBooked(\n        address ticketOwner,\n        bool isValidTicket,\n        string movieName,\n        uint256 customerAge,\n        bool hasCheckedIn,\n        uint256 price\n    );\n\n    event TicketCheckedIn(\n        address ticketOwner,\n        bool isValidTicket,\n        string movieName,\n        uint256 customerAge,\n        bool hasCheckedIn\n    );\n\n    event TicketCancelled(\n        address ticketOwner,\n        bool isValidTicket,\n        string movieName,\n        uint256 customerAge,\n        bool hasCheckedIn,\n        uint256 refund\n    );\n\n    constructor() public {\n        sysName = \"Online Movie Ticket Service\";\n    }\n\n    function buyTicket(string memory _movieName, uint256 _age) public payable {\n        require(bytes(_movieName).length > 0, \"Movie's name is required!\");\n        require(_age >= 18, \"Invalid age, it should be greater than 18.\");\n        require(\n            !tickets[msg.sender].isValidTicket ||\n                (tickets[msg.sender].isValidTicket &&\n                    tickets[msg.sender].hasCheckedIn),\n            \"You already bought a ticket before.\"\n        );\n        require(msg.value >= price, \"Payment should be enough!\");\n        tickets[msg.sender] = MovieTicket(true, _movieName, _age, false);\n        emit TicketBooked(msg.sender, true, _movieName, _age, false, price);\n    }\n\n    function checkInTicket() public {\n        MovieTicket memory _ticket = tickets[msg.sender];\n        require(_ticket.isValidTicket, \"You havn't bought a ticket before.\");\n        require(!_ticket.hasCheckedIn, \"You already checked in.\");\n        _ticket.hasCheckedIn = true;\n        tickets[msg.sender] = _ticket;\n        emit TicketCheckedIn(\n            msg.sender,\n            _ticket.isValidTicket,\n            _ticket.movieName,\n            _ticket.customerAge,\n            true\n        );\n    }\n\n    function cancalTicket() public payable {\n        MovieTicket memory _ticket = tickets[msg.sender];\n        require(_ticket.isValidTicket, \"You havn't bought a ticket before.\");\n        require(!_ticket.hasCheckedIn, \"You already checked in.\");\n        _ticket.isValidTicket = false;\n        tickets[msg.sender] = _ticket;\n        msg.sender.transfer(price);\n        emit TicketCancelled(\n            msg.sender,\n            _ticket.isValidTicket,\n            _ticket.movieName,\n            _ticket.customerAge,\n            _ticket.hasCheckedIn,\n            price\n        );\n    }\n\n}\n",
  "sourcePath": "/Users/AKIRA/EECE-571G/src/contracts/MovieSys.sol",
  "compiler": {
    "name": "solc",
    "version": "0.5.16+commit.9c3226ce.Emscripten.clang"
  },
  "schemaVersion": "3.0.23",
  "updatedAt": "2020-03-07T00:08:21.919Z",
  "devdoc": {
    "methods": {}
  },
  "userdoc": {
    "methods": {}
  }
}